S00F000043414E54657374322E6D6F74CE
S315FFFC0000000273FDFD00000201000A7373FD000090
S315FFFC0010FC06D40C037BFDFF22FB0100FFFC0AD48C
S315FFFC0020020412FB32FB0000000002048F7F134325
S315FFFC003032FB026600000204020412FB13430000BB
S315FFFC004072FB887FFFFC0322FD03177F0000007F06
S315FFFC0050016AFD0100003177FDA17E10A162116AE4
S315FFFC0060957FA17E72FB0303FFFC028572FB177F64
S315FFFC0070FFFC0076022E177F0000002E000000001A
S315FFFC00800671A67EA060EFF8006EF8696DA8020007
S315FFFC0090F33A15613A256100056100A2FB01333B8A
S315FFFC00A00800005E24755CA9035CA1FE00005EFBF4
S315FFFC00B0645DA90861555B15EC0E2005E3156065CB
S315FFFC00C06165EC65ECE721051E056165043825666F
S315FFFC00D0006EF8015EFB0200A80902005B34646C4B
S315FFFC00E06C3464442053DE84FF237603DB3457FCF5
S315FFFC00F00303205402005EFB2155DE0968555F03AE
S315FFFC01005B15648521056155005EFB1755DE09020B
S315FFFC0110555F0321156495680561555B65EC0E20FB
S315FFFC012065E31560056165EC65ECCC21661E056132
S315FFFC013000A138259C380566005EFB006CA8090209
S315FFFC0140445B3464846C3464032053DEFCFF237607
S315FFFC015054DB3457FB0303200902005E032155DE03
S315FFFC01609568555F555B15640E210561156065EC59
S315FFFC017065EC65E3E1210561056165EC2E25661DF0
S315FFFC01802E056653005EFB4F6CA80902445B346484
S315FFFC0190846C3464032053DEFCFF237654DB345734
S315FFFC01A0FB0303200902005E032155DE8568555FCC
S315FFFC01B0555B15640E210561156065EC65EC65E321
S315FFFC01C0E1210561056165EC0F25661CFB0C0566E7
S315FFFC01D051EFFF560303663F0671A67EF860EFFC00
S315FFFC01E00200006E02005EFB2054DE09FF2476034C
S315FFFC01F02054DBFB5EFB0303DE0902005F03215594
S315FFFC020064A5685561555B15EC0E2005E315606525
S315FFFC02106165EC65ECE121051C056165660B2566F0
S315FFFC02203F51EF05A67E0266EFF80671006EF86099
S315FFFC023021660200FFFE4C056DA869A0A8150561A5
S315FFFC0240FB3F2E6D0902005E032054DE040034766C
S315FFFC0250032054DB005EFB0355DE0902555F0321D9
S315FFFC02601564A5680561555B65EC0E2165E31560B4
S315FFFC0270056165EC65ECE121661C056105660B25F0
S315FFFC0280663F51EF71A67E0360EFF8063E0066F807
S315FFFC02905EFB0161A9080000FE24755C5EFB5CA1A8
S315FFFC02A0CC08C00AC34465540A5EFB5454CC08C050
S315FFFC02B054C38465C00A5EFB2054CD0854C744650D
S315FFFC02C00A5EFB2054CD08C0C78465200A0520546E
S315FFFC02D01166FFFFFFFDAC05216661E3FFFDA4058B
S315FFFC02E05EFB61E3EC08C00AFC046164146440DB5A
S315FFFC02F053CD246CFB23752054C734570A5EFB2071
S315FFFC03004EFB08C0DE0902005F0321446494684487
S315FFFC03106C1464142053CD3457F723752054C7341B
S315FFFC0320A67E002E663F06EFEFA67E017FB67E0613
S315FFFC0330EFA67E957FB67E06EFA67E957FB67E06FA
S315FFFC0340EFA67E957FB67E06EFA67E957FB67E06EA
S315FFFC0350EFA67E957FB67E06EFA67E957FB67E06DA
S315FFFC0360EFA67E957FB67E06EFA67E957FB67E06CA
S315FFFC0370EFA67E957FB67E06EFA67E957FB67E06BA
S315FFFC0380EFA67E957FB67E06EFA67E957FB67E06AA
S315FFFC0390EFA67E957FB67E06EFA67E957FB67E069A
S315FFFC03A0EFA67E957FB67E06EFA67E957FB67E068A
S315FFFC03B0EFA67E957FB67E06EFA67E957FB67E067A
S315FFFC03C0EFA67E957FB67E06EFA67E957FB67E066A
S315FFFC03D0EFA67E957FB67E06EFA67E957FB67E065A
S315FFFC03E0EFA67E957FB67E06EFA67E957FB67E064A
S315FFFC03F0EFA67E957FB67E06EFA67E957FB67E063A
S315FFFC0400EFA67E957FB67E06EFA67E957FB67E0629
S315FFFC0410EFA67E957FB67E06EFA67E957FB67E0619
S315FFFC0420EFA67E957FB67E06EFA67E957FB67E0609
S315FFFC0430EFA67E957FB67E06EFA67E957FB67E06F9
S315FFFC0440EFA67E957FB67E06EFA67E957FB67E06E9
S315FFFC0450EFA67E957FB67E06EFA67E957FB67E06D9
S315FFFC0460EFA67E957FB67E06EFA67E957FB67E06C9
S315FFFC0470EFA67E957FB67E06EFA67E957FB67E06B9
S315FFFC0480EFA67E957FB67E06EFA67E957FB67E06A9
S315FFFC0490EFA67E957FB67E06EFA67E957FB67E0699
S315FFFC04A0EFA67E957FB67E06EFA67E957FB67E0689
S315FFFC04B0EFA67E957FB67E06EFA67E957FB67E0679
S315FFFC04C0EFA67E957FB67E06EFA67E957FB67E0669
S315FFFC04D0EFA67E957FB67E06EFA67E957FB67E0659
S315FFFC04E0EFA67E957FB67E06EFA67E957FB67E0649
S315FFFC04F0EFA67E957FB67E06EFA67E957FB67E0639
S315FFFC0500EFA67E957FB67E06EFA67E957FB67E0628
S315FFFC0510EFA67E957FB67E06EFA67E957FB67E0618
S315FFFC0520EFA67E957FB67E06EFA67E957FB67E0608
S315FFFC0530EFA67E957FB67E06EFA67E957FB67E06F8
S315FFFC0540EFA67E957FB67E06EFA67E957FB67E06E8
S315FFFC0550EFA67E957FB67E06EFA67E957FB67E06D8
S315FFFC0560EFA67E957FB67E06EFA67E957FB67E06C8
S315FFFC0570EFA67E957FB67E06EFA67E957FB67E06B8
S315FFFC0580EFA67E957FB67E06EFA67E957FB67E06A8
S315FFFC0590EFA67E957FB67E06EFA67E957FB67E0698
S315FFFC05A0EFA67E957FB67E06EFA67E957FB67E0688
S315FFFC05B0EFA67E957FB67E06EFA67E957FB67E0678
S315FFFC05C0EFA67E957FB67E06EFA67E957FB67E0668
S315FFFC05D0EFA67E957FB67E06EFA67E957FB67E0658
S315FFFC05E0EFA67E957FB67E06EFA67E957FB67E0648
S315FFFC05F0EFA67E957FB67E06EFA67E957FB67E0638
S315FFFC0600EFA67E957FB67E06EFA67E957FB67E0627
S315FFFC0610EFA67E957FB67E06EFA67E957FB67E0617
S315FFFC0620EFA67E957FB67E06EFA67E957FB67E0607
S315FFFC0630EFA67E957FB67E06EFA67E957FB67E06F7
S315FFFC0640EFA67E957FB67E06EFA67E957FB67E06E7
S315FFFC0650EFA67E957FB67E06EFA67E957FB67E06D7
S315FFFC0660EFA67E957FB67E06EFA67E957FB67E06C7
S315FFFC0670EFA67E957FB67E06EFA67E957FB67E06B7
S315FFFC0680EFA67E957FB67E06EFA67E957FB67E06A7
S315FFFC0690EFA67E957FB67E06EFA67E957FB67E0697
S315FFFC06A0EFA67E957FB67E06EFA67E957FB67E0687
S315FFFC06B0EFA67E957FB67E06EFA67E957FB67E0677
S315FFFC06C0EFA67E957FB67E06EFA67E957FB67E0667
S309FFFC06D00000009590
S315FFFC06D40000000000000000000000000000000015
S315FFFC06E40000000000000000000000000000000005
S315FFFC06F400000000000000000000000000000000F5
S315FFFC070400000000000000000000000000000000E4
S315FFFC0714FFFC036100000000000000000000000075
S315FFFC072400000000FFFC036900000000FFFC0371EE
S315FFFC0734000000000000000000000000FFFC03793D
S315FFFC0744FFFC0381FFFC0389FFFC0391FFFC039978
S315FFFC07540000000000000000000000000000000094
S315FFFC07640000000000000000000000000000000084
S315FFFC07740000000000000000000000000000000074
S315FFFC0784FFFC03A1FFFC03A9FFFC03B1FFFC03B9B8
S315FFFC07940000000000000000000000000000000054
S315FFFC07A40000000000000000000000000000000044
S315FFFC07B4FFFC03C1FFFC03C9FFFC03D1FFFC03D908
S315FFFC07C4FFFC03E100000000000000000000000045
S315FFFC07D4FFFC03E9FFFC03F1FFFC03F9FFFC040147
S315FFFC07E4FFFC0409FFFC0411FFFC0419FFFC0421B4
S315FFFC07F400000000000000000000000000000000F4
S315FFFC080400000000000000000000000000000000E3
S315FFFC081400000000000000000000000000000000D3
S315FFFC082400000000000000000000000000000000C3
S315FFFC083400000000000000000000000000000000B3
S315FFFC084400000000000000000000000000000000A3
S315FFFC0854FFFC042900000000FFFC0431000000003B
S315FFFC08640000000000000000FFFC0439FFFC04410B
S315FFFC08740000000000000000FFFC0449000000002B
S315FFFC08840000000000000000000000000000000063
S315FFFC08940000000000000000FFFC0451FFFC0459AB
S315FFFC08A4FFFC0461FFFC0469FFFC0471FFFC047993
S315FFFC08B4FFFC0481FFFC0489FFFC0491FFFC049903
S315FFFC08C4FFFC04A1FFFC04A9FFFC04B1FFFC04B973
S315FFFC08D4FFFC04C1FFFC04C9FFFC04D1FFFC04D9E3
S315FFFC08E4FFFC04E1FFFC04E9FFFC04F1FFFC04F953
S315FFFC08F4FFFC0501FFFC0509FFFC0511FFFC0519BF
S315FFFC0904FFFC0521FFFC0529FFFC0531FFFC05392E
S315FFFC0914FFFC0541FFFC0549FFFC055100000000F7
S315FFFC092400000000FFFC0559FFFC0561FFFC05699F
S315FFFC0934FFFC0571FFFC05790000000000000000C8
S315FFFC094400000000000000000000000000000000A2
S315FFFC09540000000000000000000000000000000092
S315FFFC09640000000000000000000000000000000082
S315FFFC09740000000000000000FFFC0581FFFC058968
S315FFFC0984FFFC0591FFFC0599FFFC05A1FFFC05A9EE
S315FFFC0994FFFC05B1FFFC05B9FFFC05C1FFFC05C95E
S315FFFC09A4FFFC05D1FFFC05D9FFFC05E1FFFC05E9CE
S315FFFC09B4FFFC05F100000000FFFC05F9FFFC060146
S315FFFC09C4FFFC0609FFFC0611FFFC061900000000EC
S315FFFC09D4FFFC0621FFFC0629FFFC0631FFFC06395A
S315FFFC09E4FFFC0641000000000000000000000000C0
S315FFFC09F400000000000000000000000000000000F2
S315FFFC0A0400000000000000000000000000000000E1
S315FFFC0A1400000000000000000000000000000000D1
S315FFFC0A240000000000000000FFFC0649FFFC065125
S315FFFC0A34FFFC0659FFFC0661FFFC0669FFFC067119
S315FFFC0A44FFFC0679FFFC0681FFFC0689FFFC069189
S315FFFC0A54FFFC0699FFFC06A1000000000000000055
S315FFFC0A640000000000000000000000000000000081
S315FFFC0A740000000000000000000000000000000071
S315FFFC0A840000000000000000000000000000000061
S315FFFC0A940000000000000000000000000000000051
S315FFFC0AA40000000000000000FFFC06A9FFFC06B1E5
S315FFFC0AB4FFFC06B9FFFC06C10000000000000000B5
S315FFFC0AC40000000000000000FFFC06C90000000057
S315FFFFFF80000000000000000000000000000000006D
S315FFFFFF90000000000000000000000000000000005D
S315FFFFFFA0FFFFFFFFFFFFFFFFFFFFFFFFFFFFFFFF5D
S315FFFFFFB0000000000000000000000000000000003D
S315FFFFFFC0000000000000000000000000000000002D
S315FFFFFFD0FFFC0329FFFC033100000000FFFC033990
S315FFFFFFE000000000FFFC03410000000000000000CE
S315FFFFFFF00000000000000000FFFC0349FFFC0000BB
S705FFFC0000FF
